{
  "_format": "hh-sol-artifact-1",
  "contractName": "Voting",
  "sourceName": "contracts/Voting.sol",
  "abi": [
    {
      "inputs": [
        {
          "internalType": "string[]",
          "name": "_candidateNames",
          "type": "string[]"
        }
      ],
      "stateMutability": "nonpayable",
      "type": "constructor"
    },
    {
      "inputs": [
        {
          "internalType": "uint256",
          "name": "",
          "type": "uint256"
        }
      ],
      "name": "candidates",
      "outputs": [
        {
          "internalType": "string",
          "name": "name",
          "type": "string"
        },
        {
          "internalType": "uint256",
          "name": "voteCount",
          "type": "uint256"
        }
      ],
      "stateMutability": "view",
      "type": "function"
    },
    {
      "inputs": [],
      "name": "chairPerson",
      "outputs": [
        {
          "internalType": "address",
          "name": "",
          "type": "address"
        }
      ],
      "stateMutability": "view",
      "type": "function"
    },
    {
      "inputs": [
        {
          "internalType": "address",
          "name": "to",
          "type": "address"
        }
      ],
      "name": "delegateVote",
      "outputs": [],
      "stateMutability": "nonpayable",
      "type": "function"
    },
    {
      "inputs": [],
      "name": "getDelegate",
      "outputs": [
        {
          "internalType": "address",
          "name": "to",
          "type": "address"
        }
      ],
      "stateMutability": "view",
      "type": "function"
    },
    {
      "inputs": [
        {
          "internalType": "address",
          "name": "_voter",
          "type": "address"
        }
      ],
      "name": "giveRightToVote",
      "outputs": [],
      "stateMutability": "nonpayable",
      "type": "function"
    },
    {
      "inputs": [
        {
          "internalType": "uint256",
          "name": "candidateId",
          "type": "uint256"
        }
      ],
      "name": "vote",
      "outputs": [],
      "stateMutability": "nonpayable",
      "type": "function"
    },
    {
      "inputs": [
        {
          "internalType": "address",
          "name": "",
          "type": "address"
        }
      ],
      "name": "voters",
      "outputs": [
        {
          "internalType": "uint256",
          "name": "weight",
          "type": "uint256"
        },
        {
          "internalType": "uint256",
          "name": "vote",
          "type": "uint256"
        },
        {
          "internalType": "bool",
          "name": "status",
          "type": "bool"
        },
        {
          "internalType": "address",
          "name": "delegate",
          "type": "address"
        }
      ],
      "stateMutability": "view",
      "type": "function"
    },
    {
      "inputs": [],
      "name": "winningCandidate",
      "outputs": [
        {
          "internalType": "uint256",
          "name": "winningId",
          "type": "uint256"
        }
      ],
      "stateMutability": "view",
      "type": "function"
    },
    {
      "inputs": [],
      "name": "winningCandidateName",
      "outputs": [
        {
          "internalType": "string",
          "name": "_name",
          "type": "string"
        }
      ],
      "stateMutability": "view",
      "type": "function"
    }
  ],
  "bytecode": "0x60806040523480156200001157600080fd5b50604051620019a4380380620019a4833981810160405281019062000037919062000525565b33600260006101000a81548173ffffffffffffffffffffffffffffffffffffffff021916908373ffffffffffffffffffffffffffffffffffffffff1602179055506001600080600260009054906101000a900473ffffffffffffffffffffffffffffffffffffffff1673ffffffffffffffffffffffffffffffffffffffff1673ffffffffffffffffffffffffffffffffffffffff1681526020019081526020016000206000018190555060005b8151811015620001d457600082511162000135576040517f08c379a00000000000000000000000000000000000000000000000000000000081526004016200012c90620005d7565b60405180910390fd5b60016040518060400160405280848481518110620001585762000157620005f9565b5b60200260200101518152602001600081525090806001815401808255809150506001900390600052602060002090600202016000909190919091506000820151816000019080519060200190620001b1929190620001dc565b506020820151816001015550508080620001cb9062000661565b915050620000e4565b505062000714565b828054620001ea90620006de565b90600052602060002090601f0160209004810192826200020e57600085556200025a565b82601f106200022957805160ff19168380011785556200025a565b828001600101855582156200025a579182015b82811115620002595782518255916020019190600101906200023c565b5b5090506200026991906200026d565b5090565b5b80821115620002885760008160009055506001016200026e565b5090565b6000604051905090565b600080fd5b600080fd5b600080fd5b6000601f19601f8301169050919050565b7f4e487b7100000000000000000000000000000000000000000000000000000000600052604160045260246000fd5b620002f082620002a5565b810181811067ffffffffffffffff82111715620003125762000311620002b6565b5b80604052505050565b6000620003276200028c565b9050620003358282620002e5565b919050565b600067ffffffffffffffff821115620003585762000357620002b6565b5b602082029050602081019050919050565b600080fd5b600080fd5b600067ffffffffffffffff821115620003915762000390620002b6565b5b6200039c82620002a5565b9050602081019050919050565b60005b83811015620003c9578082015181840152602081019050620003ac565b83811115620003d9576000848401525b50505050565b6000620003f6620003f08462000373565b6200031b565b9050828152602081018484840111156200041557620004146200036e565b5b62000422848285620003a9565b509392505050565b600082601f830112620004425762000441620002a0565b5b815162000454848260208601620003df565b91505092915050565b6000620004746200046e846200033a565b6200031b565b905080838252602082019050602084028301858111156200049a576200049962000369565b5b835b81811015620004e857805167ffffffffffffffff811115620004c357620004c2620002a0565b5b808601620004d289826200042a565b855260208501945050506020810190506200049c565b5050509392505050565b600082601f8301126200050a5762000509620002a0565b5b81516200051c8482602086016200045d565b91505092915050565b6000602082840312156200053e576200053d62000296565b5b600082015167ffffffffffffffff8111156200055f576200055e6200029b565b5b6200056d84828501620004f2565b91505092915050565b600082825260208201905092915050565b7f70726f766964652063616e646964617465730000000000000000000000000000600082015250565b6000620005bf60128362000576565b9150620005cc8262000587565b602082019050919050565b60006020820190508181036000830152620005f281620005b0565b9050919050565b7f4e487b7100000000000000000000000000000000000000000000000000000000600052603260045260246000fd5b7f4e487b7100000000000000000000000000000000000000000000000000000000600052601160045260246000fd5b6000819050919050565b60006200066e8262000657565b91507fffffffffffffffffffffffffffffffffffffffffffffffffffffffffffffffff821415620006a457620006a362000628565b5b600182019050919050565b7f4e487b7100000000000000000000000000000000000000000000000000000000600052602260045260246000fd5b60006002820490506001821680620006f757607f821691505b602082108114156200070e576200070d620006af565b5b50919050565b61128080620007246000396000f3fe608060405234801561001057600080fd5b50600436106100935760003560e01c8063b31e1d4d11610066578063b31e1d4d14610134578063bc7f3b5014610150578063d28178d71461016e578063d45236fd1461018c578063d4d4b5ac146101aa57610093565b80630121b93f146100985780633477ee2e146100b45780639e7b8d61146100e5578063a3ec138d14610101575b600080fd5b6100b260048036038101906100ad9190610b7b565b6101c8565b005b6100ce60048036038101906100c99190610b7b565b61030e565b6040516100dc929190610c50565b60405180910390f35b6100ff60048036038101906100fa9190610cde565b6103ca565b005b61011b60048036038101906101169190610cde565b6105b7565b60405161012b9493929190610d35565b60405180910390f35b61014e60048036038101906101499190610cde565b610614565b005b61015861098c565b6040516101659190610d7a565b60405180910390f35b6101766109f5565b6040516101839190610d95565b60405180910390f35b610194610a5e565b6040516101a19190610db0565b60405180910390f35b6101b2610b1a565b6040516101bf9190610d7a565b60405180910390f35b60008060003373ffffffffffffffffffffffffffffffffffffffff1673ffffffffffffffffffffffffffffffffffffffff16815260200190815260200160002090508060020160009054906101000a900460ff161561025c576040517f08c379a000000000000000000000000000000000000000000000000000000000815260040161025390610e1e565b60405180910390fd5b6000816000015414156102a4576040517f08c379a000000000000000000000000000000000000000000000000000000000815260040161029b90610e8a565b60405180910390fd5b60018160020160006101000a81548160ff0219169083151502179055508181600101819055508060000154600183815481106102e3576102e2610eaa565b5b906000526020600020906002020160010160008282546103039190610f08565b925050819055505050565b6001818154811061031e57600080fd5b906000526020600020906002020160009150905080600001805461034190610f8d565b80601f016020809104026020016040519081016040528092919081815260200182805461036d90610f8d565b80156103ba5780601f1061038f576101008083540402835291602001916103ba565b820191906000526020600020905b81548152906001019060200180831161039d57829003601f168201915b5050505050908060010154905082565b600260009054906101000a900473ffffffffffffffffffffffffffffffffffffffff1673ffffffffffffffffffffffffffffffffffffffff163373ffffffffffffffffffffffffffffffffffffffff161461045a576040517f08c379a000000000000000000000000000000000000000000000000000000000815260040161045190611031565b60405180910390fd5b6000808273ffffffffffffffffffffffffffffffffffffffff1673ffffffffffffffffffffffffffffffffffffffff16815260200190815260200160002060020160009054906101000a900460ff16156104e9576040517f08c379a00000000000000000000000000000000000000000000000000000000081526004016104e09061109d565b60405180910390fd5b60008060008373ffffffffffffffffffffffffffffffffffffffff1673ffffffffffffffffffffffffffffffffffffffff168152602001908152602001600020600001541461056d576040517f08c379a000000000000000000000000000000000000000000000000000000000815260040161056490611109565b60405180910390fd5b60016000808373ffffffffffffffffffffffffffffffffffffffff1673ffffffffffffffffffffffffffffffffffffffff1681526020019081526020016000206000018190555050565b60006020528060005260406000206000915090508060000154908060010154908060020160009054906101000a900460ff16908060020160019054906101000a900473ffffffffffffffffffffffffffffffffffffffff16905084565b60008060003373ffffffffffffffffffffffffffffffffffffffff1673ffffffffffffffffffffffffffffffffffffffff168152602001908152602001600020905060008160000154141561069e576040517f08c379a000000000000000000000000000000000000000000000000000000000815260040161069590611175565b60405180910390fd5b8060020160009054906101000a900460ff16156106f0576040517f08c379a00000000000000000000000000000000000000000000000000000000081526004016106e790610e1e565b60405180910390fd5b5b600073ffffffffffffffffffffffffffffffffffffffff166000808473ffffffffffffffffffffffffffffffffffffffff1673ffffffffffffffffffffffffffffffffffffffff16815260200190815260200160002060020160019054906101000a900473ffffffffffffffffffffffffffffffffffffffff1673ffffffffffffffffffffffffffffffffffffffff161461085e576000808373ffffffffffffffffffffffffffffffffffffffff1673ffffffffffffffffffffffffffffffffffffffff16815260200190815260200160002060020160019054906101000a900473ffffffffffffffffffffffffffffffffffffffff1691503373ffffffffffffffffffffffffffffffffffffffff168273ffffffffffffffffffffffffffffffffffffffff161415610859576040517f08c379a0000000000000000000000000000000000000000000000000000000008152600401610850906111e1565b60405180910390fd5b6106f1565b60018160020160006101000a81548160ff021916908315150217905550818160020160016101000a81548173ffffffffffffffffffffffffffffffffffffffff021916908373ffffffffffffffffffffffffffffffffffffffff16021790555060008060008473ffffffffffffffffffffffffffffffffffffffff1673ffffffffffffffffffffffffffffffffffffffff1681526020019081526020016000209050600115158160020160009054906101000a900460ff1615151415610967578160000154600182600101548154811061093b5761093a610eaa565b5b9060005260206000209060020201600101600082825461095b9190610f08565b92505081905550610987565b816000015481600001600082825461097f9190610f08565b925050819055505b505050565b60008060003373ffffffffffffffffffffffffffffffffffffffff1673ffffffffffffffffffffffffffffffffffffffff16815260200190815260200160002060020160019054906101000a900473ffffffffffffffffffffffffffffffffffffffff16905090565b6000806000905060005b600180549050811015610a5957600060018281548110610a2257610a21610eaa565b5b906000526020600020906002020160010154905082811115610a45578092508193505b508080610a5190611201565b9150506109ff565b505090565b60606001610a6a6109f5565b81548110610a7b57610a7a610eaa565b5b90600052602060002090600202016000018054610a9790610f8d565b80601f0160208091040260200160405190810160405280929190818152602001828054610ac390610f8d565b8015610b105780601f10610ae557610100808354040283529160200191610b10565b820191906000526020600020905b815481529060010190602001808311610af357829003601f168201915b5050505050905090565b600260009054906101000a900473ffffffffffffffffffffffffffffffffffffffff1681565b600080fd5b6000819050919050565b610b5881610b45565b8114610b6357600080fd5b50565b600081359050610b7581610b4f565b92915050565b600060208284031215610b9157610b90610b40565b5b6000610b9f84828501610b66565b91505092915050565b600081519050919050565b600082825260208201905092915050565b60005b83811015610be2578082015181840152602081019050610bc7565b83811115610bf1576000848401525b50505050565b6000601f19601f8301169050919050565b6000610c1382610ba8565b610c1d8185610bb3565b9350610c2d818560208601610bc4565b610c3681610bf7565b840191505092915050565b610c4a81610b45565b82525050565b60006040820190508181036000830152610c6a8185610c08565b9050610c796020830184610c41565b9392505050565b600073ffffffffffffffffffffffffffffffffffffffff82169050919050565b6000610cab82610c80565b9050919050565b610cbb81610ca0565b8114610cc657600080fd5b50565b600081359050610cd881610cb2565b92915050565b600060208284031215610cf457610cf3610b40565b5b6000610d0284828501610cc9565b91505092915050565b60008115159050919050565b610d2081610d0b565b82525050565b610d2f81610ca0565b82525050565b6000608082019050610d4a6000830187610c41565b610d576020830186610c41565b610d646040830185610d17565b610d716060830184610d26565b95945050505050565b6000602082019050610d8f6000830184610d26565b92915050565b6000602082019050610daa6000830184610c41565b92915050565b60006020820190508181036000830152610dca8184610c08565b905092915050565b7f416c726561647920566f74656400000000000000000000000000000000000000600082015250565b6000610e08600d83610bb3565b9150610e1382610dd2565b602082019050919050565b60006020820190508181036000830152610e3781610dfb565b9050919050565b7f5269676874206e6f7420676976656e0000000000000000000000000000000000600082015250565b6000610e74600f83610bb3565b9150610e7f82610e3e565b602082019050919050565b60006020820190508181036000830152610ea381610e67565b9050919050565b7f4e487b7100000000000000000000000000000000000000000000000000000000600052603260045260246000fd5b7f4e487b7100000000000000000000000000000000000000000000000000000000600052601160045260246000fd5b6000610f1382610b45565b9150610f1e83610b45565b9250827fffffffffffffffffffffffffffffffffffffffffffffffffffffffffffffffff03821115610f5357610f52610ed9565b5b828201905092915050565b7f4e487b7100000000000000000000000000000000000000000000000000000000600052602260045260246000fd5b60006002820490506001821680610fa557607f821691505b60208210811415610fb957610fb8610f5e565b5b50919050565b7f6f6e6c79206368616972706572736f6e20676976657320726967687420746f2060008201527f766f746500000000000000000000000000000000000000000000000000000000602082015250565b600061101b602483610bb3565b915061102682610fbf565b604082019050919050565b6000602082019050818103600083015261104a8161100e565b9050919050565b7f416c726561647920766f74746564000000000000000000000000000000000000600082015250565b6000611087600e83610bb3565b915061109282611051565b602082019050919050565b600060208201905081810360008301526110b68161107a565b9050919050565b7f526967687420476976656e000000000000000000000000000000000000000000600082015250565b60006110f3600b83610bb3565b91506110fe826110bd565b602082019050919050565b60006020820190508181036000830152611122816110e6565b9050919050565b7f596f752068617665206e6f20726967687420746f20766f746500000000000000600082015250565b600061115f601983610bb3565b915061116a82611129565b602082019050919050565b6000602082019050818103600083015261118e81611152565b9050919050565b7f796f752063616e6e6f742064656c656761746520746f20796f757273656c6600600082015250565b60006111cb601f83610bb3565b91506111d682611195565b602082019050919050565b600060208201905081810360008301526111fa816111be565b9050919050565b600061120c82610b45565b91507fffffffffffffffffffffffffffffffffffffffffffffffffffffffffffffffff82141561123f5761123e610ed9565b5b60018201905091905056fea2646970667358221220bfd914395e82eec6ad49cff0ad15eeb57b91ad9a3dc6393d40bae3a832c7d53f64736f6c63430008090033",
  "linkReferences": {},
  "deployedLinkReferences": {}
}